:030000000201D723
:0100030032CA
:03000B0002012AC5
:0100130032BA
:01001B0032B2
:0100230032AA
:03002B000201547B
:10002E00C000788500D8FDD00022C000C00179281C
:10003E007868D8FED9FADAF6D001D00022D294121E
:10004E00002EC29422A2E79283A2E69282A2E592A9
:10005E0081A2E4928012004B12002EA2E39283A2A0
:10006E00E29282A2E19281A2E0928012004B22D211
:10007E0093020053C293020053C294C0027A281214
:10008E000038D0027433120082743312008274323C
:10009E001200827428120082740C120082740112F3
:1000AE000082C0027A02120038D00222E493600667
:1000BE0012007DA380F62244404480020082C0E0FC
:1000CE00E8C4540F443012007DE8540F443012003F
:1000DE007DD0E02254696D653A202020203A202000
:1000EE003A00416C61726D3A2020203A002D2D208D
:1000FE005049414E4F204D4F4445202D2D0020009C
:10010E00438E08E58954F04401F589753AF0753B44
:10011E002C853A8C853B8AD2A9C28C22C28C853A18
:10012E008C853B8AD28CB2973275C80075CDBF755F
:10013E00CC2843C98075CBBF75CA28E4F530F5319C
:10014E00439B80D2CA22C2CFC0E0C0D00530E5307A
:10015E0070020531E530B4E812E531B4030DD2007A
:10016E00E4F530F531E53224018013E539B4010CA4
:10017E00E530B4F407E531B40102B2848046D4F51B
:10018E0032E532B4603E753200E5332401D4F533E6
:10019E00E533B4602F753200753300E5342401D495
:1001AE00F534B412051201C0801AB4131775340158
:1001BE008012C0E0E535B4410575355080037535C4
:1001CE0041D0E022D0D0D0E03275817F75B100757C
:1001DE00B20075B30075B40075AD0075AD001201B7
:1001EE000E120137D2AF120087C0E0740114120054
:1001FE00C7D0E0C083C082C0E09000E21200BAD047
:10020E00E0D082D083C0E07401141200C5D0E0C0EB
:10021E0083C082C0E09000F01200BAD0E0D082D04D
:10022E0083D20075320075335975341175354175A9
:10023E003609753730753841753900753AF0753BAA
:10024E002C3090028012C0027A32120038D0022076
:10025E0090063090FD02046E120287E539B401104B
:10026E00309102800B1202BE7539023091FD80D1A1
:10027E00309653309141020465E539B4020FE534EE
:10028E00B53606E533B537012275390022E53960FA
:10029E000122E533B53712E534B5360DE535B538FF
:1002AE0008D28CD284753901221202BE7539002211
:1002BE00C28CC297C28422C0027A32120038D00297
:1002CE00309112020465C0027A32120038D0023028
:1002DE00965D0204653091FDC0027A32120038D06C
:1002EE00021205501202BE20911BC0027A32120079
:1002FE0038D00220910F3091FDC0027A32120038B0
:10030E00D002020462209512C0027A32120038D056
:10031E00022095061203AC0202E320B0C4C0027A9A
:10032E0032120038D00220B0B81203CD0202EF30E4
:10033E0096FDC0027A32120038D002C2CA1205509F
:10034E001202BE20961BC0027A32120038D0022052
:10035E00960F3096FDC0027A32120038D002020497
:10036E005D209511C0027A32120038D00220950518
:10037E001203E680C820B012C0027A32120038D0C2
:10038E000220B00612040702034B2092B0C0027A7C
:10039E0032120038D0022092A4120420809FE5363B
:1003AE002401D4B4120512044B8005B41302740157
:1003BE00F5363095FDC0027A32120038D00222E5B1
:1003CE00372401D4B460027400F53730B0FDC0029A
:1003DE007A32120038D00222E5342401D4B4120548
:1003EE001204398005B413027401F5343095FDC042
:1003FE00027A32120038D00222E5332401D4B460DE
:10040E00027400F53330B0FDC0027A32120038D0DB
:10041E000222E5322401D4B460027400F532309227
:10042E00FDC0027A32120038D00222C0E0E535B4A7
:10043E0041057535508003753541D0E022C0E0E5A9
:10044E0038B441057538508003753841D0E022D25A
:10045E00CA02024F02024F30000312055002024F31
:10046E001202BE120087C0E07401141200C7D0E061
:10047E00C083C082C0E09000FB1200BAD0E0D082F0
:10048E00D083C0E07401141200C5D0E0C083C082D6
:10049E00C0E090010C1200BAD0E0D082D08320963A
:1004AE000A753AC2753B03D28C803820950A753A8C
:1004BE00C8753BC5D28C802B20B00A753ACE753BE1
:1004CE00CED28C801E20920A753AD1753B8DD28C7D
:1004DE00801120910A753AD6753BA6D28C8004C243
:1004EE008CC2972090B8C0027A32120038D0022007
:1004FE0090AC3090FDC0027A32120038D002120257
:10050E00BE753AF0753B2CC0E07401141200C7D0D2
:10051E00E0C083C082C0E09000E21200BAD0E0D00A
:10052E0082D083C0E07401141200C5D0E0C083C035
:10053E0082C0E09000F01200BAD0E0D082D08302E8
:10054E00024FC200C0E0740E141200C7D0E0C0000B
:10055E00A8321200CCD000C0E0740B141200C7D029
:10056E00E0C000A8331200CCD000C0E07408141212
:10057E0000C7D0E0C000A8341200CCD000C0E07498
:10058E0010141200C7D0E0C0E0E53512007DD0E0B7
:10059E00C0E07408141200C5D0E0C000A8361200E6
:1005AE00CCD000C0E0740B141200C5D0E0C000A87F
:1005BE00371200CCD000C0E0740D141200C5D0E08C
:0A05CE00C0E0E53812007DD0E02205
:00000001FF
